:100000000C9434000C943E000C943E000C943E0082
:100010000C943E000C943E000C943E000C943E0068
:100020000C943E000C943E000C943E000C943E0058
:100030000C943E000C943E000C943E000C943E0048
:100040000C943E000C943E000C943E000C943E0038
:100050000C943E000C943E000C943E000C943E0028
:100060000C943E000C943E0011241FBECFEFD8E04C
:10007000DEBFCDBF0E948E000C94E3000C94000004
:1000800080E28093B8000895ECEBF0E0108294EAEF
:10009000908390819923ECF79091B900987F9830E4
:1000A000A1F48093BB0084E88093BC00ECEBF0E00B
:1000B00080818823ECF79091B900987F983139F0CE
:1000C00081E0903429F480E0089581E0089580E093
:1000D00008958093BB0084E88093BC00ECEBF0E0D3
:1000E00080818823ECF79091B900987F81E0983265
:1000F00009F480E0089584E98093BC00089580E4C9
:100100000E94440080E00E94690080E00E94690033
:1001100080E00E9469000E947B0008950E944000D8
:100120000E947F0080E40E94440083E10E946900F5
:100130008FEF0E9469000E947B002FE78AE196E022
:10014000215080409040E1F700C0000080E40E9410
:10015000440082E10E9469008FEF0E9469000E94C2
:100160007B002FE78AE196E0215080409040E1F744
:1001700000C0000080E40E94440083E10E94690006
:1001800080E00E9469000E947B002FE78AE196E0F0
:10019000215080409040E1F700C0000080E40E94C0
:1001A000440082E10E94690080E00E9469000E9490
:1001B0007B002FE78AE196E0215080409040E1F7F4
:0A01C00000C00000AFCFF894FFCF9D
:00000001FF
